:100000000C9497030C94BF030C94BF030C94BF0390
:100010000C94BF030C94BF030C94BF030C94BF0358
:100020000C94BF030C94BF030C94BF030C94BF0348
:100030000C94BF030C9457170C94BF030C94BF038C
:100040000C949A150C94BF030C940A160C94E415A6
:100050000C94BF030C94BF030C94BF030C94BF0318
:100060000C943C160C94BF0300407A10F35A00A085
:10007000724E18090010A5D4E80000E87648170071
:1000800000E40B54020000CA9A3B000000E1F505B1
:10009000000080969800000040420F000000A086FB
:1000A00001000000102700000000E803000000002D
:1000B0006400000000000A000000000001000000D1
:1000C00000002C76D888DC674F0823DFC1DFAE59EB
:1000D000E1B1B796E5E3E453C63AE651997696E87E
:1000E000E6C28426EB898C9B62ED407C6FFCEFBC02
:1000F0009C9F40F2BAA56FA5F490055A2AF75C932D
:100100006B6CF9676DC11BFCE0E40D47FEF520E662
:10011000B500D0ED902E0300943577050080841E45
:10012000080000204E0A000000C80C333333330FA0
:10013000986E12831141EF8D2114893BE65516CF3D
:10014000FEE6DB18D1844B381BF77C1D901DA4BB49
:10015000E424203284725E228100C9F124ECA1E5FE
:100160003D2700000000003E5B4F5B3E3E6B4F6B47
:100170003E1C3E7C3E1C183C7E3C181C577D571C88
:100180001C5E7F5E1C00183C1800FFE7C3E7FF0001
:1001900018241800FFE7DBE7FF30483A060E26294F
:1001A000792926407F050507407F05253F5A3CE712
:1001B0003C5A7F3E1C1C08081C1C3E7F14227F22D8
:1001C000145F5F005F5F06097F017F006689956AA3
:1001D000606060606094A2FFA29408047E0408102E
:1001E000207E201008082A1C08081C2A08081E1057
:1001F0001010100C1E0C1E0C30383E3830060E3E0F
:100200000E06000000000000005F0000000700076D
:1002100000147F147F14242A7F2A12231308646297
:1002200036495620500008070300001C22410000F8
:1002300041221C002A1C7F1C2A08083E0808008056
:1002400070300008080808080000606000201008EE
:1002500004023E5149453E00427F400072494949EF
:10026000462141494D331814127F10274545453921
:100270003C4A494931412111090736494949364625
:100280004949291E00001400000040340000000805
:1002900014224114141414140041221408020159A8
:1002A00009063E415D594E7C1211127C7F49494935
:1002B000363E414141227F4141413E7F49494941CA
:1002C0007F090909013E414151737F0808087F00F9
:1002D000417F41002040413F017F081422417F407F
:1002E0004040407F021C027F7F0408107F3E414156
:1002F000413E7F090909063E4151215E7F091929C6
:1003000046264949493203017F01033F4040403FAF
:100310001F2040201F3F4038403F631408146303F0
:10032000047804036159494D43007F41414102046F
:10033000081020004141417F040201020440404076
:100340004040000307080020545478407F2844446C
:10035000383844444428384444287F385454541886
:1003600000087E090218A4A49C787F080404780081
:10037000447D40002040403D007F10284400004163
:100380007F40007C047804787C0804047838444476
:100390004438FC1824241818242418FC7C0804046D
:1003A00008485454542404043F44243C4040207CD6
:1003B0001C2040201C3C4030403C44281028444C29
:1003C0009090907C4464544C4400083641000000F6
:1003D000770000004136080002010204023C262397
:1003E000263C1EA1A161123A4040207A385454554F
:1003F0005921555579412254547842215554784019
:1004000020545579400C1E527212395555555939A0
:100410005454545939555454580000457C410002F5
:10042000457D420001457C407D1211127DF028255A
:1004300028F07C545545002054547C547C0A097F94
:100440004932494949323A4444443A324A484830A8
:100450003A4141217A3A42402078009DA0A07D3D5A
:100460004242423D3D4040403D3C24FF2424487EE2
:100470004943662B2FFC2F2BFF0929F620C0887ECD
:10048000090320545479410000447D413048484AD2
:1004900032384040227A007A0A0A727D0D19317D85
:1004A0002629292F28262929292630484D40203859
:1004B0000808080808080808382F10C8ACBA2F1018
:1004C0002834FA00007B000008142A142222142A7F
:1004D00014085500550055AA55AA55AAFF55FF55B1
:1004E000FF000000FF00101010FF00141414FF00A4
:1004F0001010FF00FF1010F010F0141414FC001482
:1005000014F700FF0000FF00FF1414F404FC14149F
:1005100017101F10101F101F1414141F001010109C
:10052000F0000000001F101010101F10101010F02D
:1005300010000000FF101010101010101010FF100D
:10054000000000FF140000FF00FF00001F10170054
:1005500000FC04F414141710171414F404F400002D
:10056000FF00F714141414141414F700F7141414DF
:10057000171410101F101F141414F4141010F0107E
:10058000F000001F101F0000001F14000000FC14EA
:100590000000F010F01010FF10FF141414FF1410DE
:1005A00010101F00000000F010FFFFFFFFFFF0F031
:1005B000F0F0F0FFFFFF0000000000FFFF0F0F0F43
:1005C0000F0F3844443844FC4A4A4A347E0202063B
:1005D00006027E027E0263554941633844443C046E
:1005E000407E201E2006027E020299A5E7A5991CE6
:1005F0002A492A1C4C7201724C304A4D4D30304809
:10060000784830BC625A463D3E494949007E010166
:10061000017E2A2A2A2A2A44445F444440514A44FB
:100620004040444A51400000FF0103E080FF0000C9
:1006300008086B6B083612362436060F090F0600C1
:100640000018180000001010003040FF0101001FCA
:1006500001011E00191D1712003C3C3C3C0000002B
:100660000000EF03038002CF0300C130ED046403F8
:100670001281E803850078CB05392C003402F7019C
:1006800020EA020000C00123C10110C5023E28C7B4
:1006900001863601483701003A0155B1020018B60B
:1006A00003088227F20100260101E00F0F312B0C15
:1006B0000E084EF1370710030E0900E10F000E146B
:1006C00003110731C148080F0C31360F1180298002
:1006D0000000000000240027002A0000000008009D
:1006E00002010000030407000000000000000000F9
:1006F0000000002300260029000102040810204009
:1007000080010204081020010204081020000000EB
:1007100000250028002B000404040404040404023F
:100720000202020202030303030303007E171124E3
:100730001FBECFEFD8E0DEBFCDBF11E0A0E0B1E03B
:10074000EAE8F4E402C005900D92A439B107D9F7A4
:1007500022E0A4E9B1E001C01D92AA3FB207E1F78F
:1007600013E0C7E9D3E004C02197FE010E944620B0
:10077000C639D107C9F70E9495180C9443220C94EE
:100780000000833081F028F4813099F08230A9F0A4
:1007900008958730A9F08830C9F08430B1F4809191
:1007A00080008F7D03C0809180008F7780938000D0
:1007B000089584B58F7784BD089584B58F7DFBCF70
:1007C0008091B0008F778093B00008958091B00041
:1007D0008F7DF9CFCF93DF93282F30E0F901E552D9
:1007E000F94F8491F901E750F94FD491F901E95E8D
:1007F000F84FC491CC23A1F081110E94C103EC2FCA
:10080000F0E0EE0FFF1FE151F94FA591B491EC918B
:10081000ED2381E090E009F480E0DF91CF9108952D
:1008200080E090E0FACF1F93CF93DF93282F30E042
:10083000F901E552F94F8491F901E750F94FD4914C
:10084000F901E95EF84FC491CC23A9F0162F81116C
:100850000E94C103EC2FF0E0EE0FFF1FE35FF84FA3
:10086000A591B4918FB7F894EC91111108C0D0956F
:10087000DE23DC938FBFDF91CF911F910895DE2B94
:10088000F8CFCF93DF9390E0FC01E750F94F24912C
:10089000895E984FFC0184918823C9F090E0880F0D
:1008A000991FFC01EF52F94FA591B491FC01E35F50
:1008B000F84FC591D49161110DC09FB7F8948C91F8
:1008C000209582238C938881282328839FBFDF91E2
:1008D000CF910895623051F49FB7F8943C91822FE4
:1008E000809583238C93E8812E2BEFCF8FB7F894DC
:1008F000EC912E2B2C938FBFEACF8E508064809387
:100900007C0080917A00806480937A0080917A00E4
:1009100086FDFCCF809178009091790008953FB7D3
:10092000F8948091120290911302A0911402B09158
:10093000150226B5A89B05C02F3F19F00196A11DF1
:10094000B11D3FBFBA2FA92F982F8827BC01CD0119
:10095000620F711D811D911D42E0660F771F881F78
:10096000991F4A95D1F708958F929F92AF92BF92A7
:10097000CF92DF92EF92FF924B015C010E948F04B5
:100980006B017C010E948F046C197D098E099F09FF
:10099000683E734081059105A8F321E0821A910811
:1009A000A108B10888EEC80E83E0D81EE11CF11C36
:1009B00081149104A104B10429F7FF90EF90DF9016
:1009C000CF90BF90AF909F908F900895AF92BF92BD
:1009D000CF92DF92EF92FF920F931F93CF93DF930B
:1009E0006C017B018B01040F151FEB015E01AE183A
:1009F000BF08C017D10759F06991D601ED91FC915C
:100A00000190F081E02DC6010995892B79F7C50188
:100A1000DF91CF911F910F91FF90EF90DF90CF90DA
:100A2000BF90AF900895FC01538D448D252F30E089
:100A3000842F90E0821B930B541710F0CF960895EB
:100A400001970895FC01918D828D981761F0A28D18
:100A5000AE0FBF2FB11D5D968C91928D9F5F9F73DE
:100A6000928F90E008958FEF9FEF0895FC01918D94
:100A7000828D981731F0828DE80FF11D858D90E001
:100A800008958FEF9FEF0895FC01918D228D892F9E
:100A900090E0805C9F4F821B91098F739927089586
:100AA00086E192E00E94440521E0892B09F420E0D0
:100AB000822F089580E090E0892B29F00E94500554
:100AC00081110C9400000895FC01A48DA80FB92F8A
:100AD000B11DA35ABF4F2C91848D90E001968F7366
:100AE0009927848FA689B7892C93A089B1898C9185
:100AF000837080648C93938D848D981306C00288D4
:100B0000F389E02D80818F7D80830895EF92FF929D
:100B10000F931F93CF93DF93EC0181E0888F9B8D20
:100B20008C8D98131AC0E889F989808185FF15C0DA
:100B30009FB7F894EE89FF896083E889F9898081FD
:100B40008370806480839FBF81E090E0DF91CF91CC
:100B50001F910F91FF90EF900895F62E0B8D10E0EE
:100B60000F5F1F4F0F731127E02E8C8D8E110CC05D
:100B70000FB607FCFACFE889F989808185FFF5CFA8
:100B8000CE010E946405F1CFEB8DEC0FFD2FF11D1E
:100B9000E35AFF4FF0829FB7F8940B8FEA89FB89E5
:100BA00080818062CFCFCF93DF93EC01888D882343
:100BB000B9F0AA89BB89E889F9898C9185FD03C0C0
:100BC000808186FD0DC00FB607FCF7CF8C9185FFA5
:100BD000F2CF808185FFEDCFCE010E946405E9CF81
:100BE000DF91CF9108952091BD01260F3327331F48
:100BF00021323105ECF42091E101FC0190E080E02C
:100C0000243069F082E00895A091BD012191AC01EA
:100C100043565E4FA40FB52FB11D2C930196861736
:100C200098F38091BD01680F6093BD0180E0089545
:100C300081E0089508958FEF9FEF08958FEF9FEF64
:100C400008958091960190E091958195910908957C
:100C5000CF93DF93CB01EA01642F0E94F305CE010D
:100C6000DF91CF910895CF93DF931F92CDB7DEB779
:100C7000698361E0CE0101960E94F30581E090E076
:100C80000F90DF91CF910895FC01A5A1B6A18C91A1
:100C900092A589238C93A5A1B6A18C9191A5892BAE
:100CA0008C9308950F931F93CF93DF93EC018B01E7
:100CB0008DA981110DC01EBD0DB407FEFDCF0EBD67
:100CC0000DB407FEFDCFDF91CF911F910F910895D5
:100CD0008130E9F480E1E9A1FAA1908117FF14C005
:100CE0002DA1922B9083EBA1FCA190812FA1922B9F
:100CF0009083EBA1FCA1908128A592239083000F03
:100D0000111F815041F7DFCF2EA19223EBCFEF8D42
:100D1000F8A11083CE010E944406EF8DF8A1008354
:100D2000CE01DF91CF911F910F910C944406FC01ED
:100D300085A9811105C06EBD0DB407FEFDCF0895D4
:100D40008130E1F488E0A1A1B2A19C9167FF13C0BA
:100D500025A1922B9C93A3A1B4A19C9127A1922B96
:100D60009C93660FA3A1B4A19C9120A592239C9370
:100D7000815049F7089526A19223ECCFA78DB0A109
:100D80006C93CF010C944406CF93DF93EC01ED8D6F
:100D9000FE8D80819CA989238083CE010E949706C5
:100DA000ED8DFE8D80819BA9892B8083DF91CF9172
:100DB0000895AF92BF92CF92DF92EF92FF920F937E
:100DC0001F93CF93DF93EC015B016A01215031093E
:100DD0007901E60EF71E01501109040F151F8091CD
:100DE0000601909107018617970739F48091040155
:100DF000909105018E159F05A1F06AE2CE010E9437
:100E0000C406B501CE010E945206B701CE010E9470
:100E10005206B0920701A0920601F0920501E092FD
:100E2000040180910201909103018C159D0539F414
:100E3000809100019091010180179107A1F06BE270
:100E4000CE010E94C406B601CE010E945206B8012E
:100E5000CE010E945206D0920301C092020110936B
:100E60000101009300016CE2CE01DF91CF911F914F
:100E70000F91FF90EF90DF90CF90BF90AF900C94C8
:100E8000C406FC0185A9811104C091A182A19CBD69
:100E90008DBD08951F93CF93DF93EC01162FE8814A
:100EA000F9810284F385E02D0995112371F06DAD70
:100EB000CE010E94C406E881F9810688F789E02DF9
:100EC000CE01DF91CF911F9109946EADF1CFAF921A
:100ED000BF92CF92DF92EF92FF920F931F93CF9327
:100EE000DF93EC0177FD38C088859985681779070D
:100EF0009CF557FD31C08A859B854817590764F5D5
:100F000069017A015B01E881F9810284F385E02DB2
:100F1000CE010995E881F98102A4F3A5E02D01E055
:100F200010E021E030E0A701B501CE010995B6013E
:100F3000CE010E945206E881F9810688F789E02DEA
:100F4000CE01DF91CF911F910F91FF90EF90DF9035
:100F5000CF90BF90AF900994DF91CF911F910F91E7
:100F6000FF90EF90DF90CF90BF90AF9008958F9259
:100F70009F92AF92BF92CF92DF92EF92FF920F9328
:100F80001F93CF93DF93EC0149015701E881F98169
:100F900002A4F3A5E02D09959401D8010E94372001
:100FA0006B017C01C114D104E104F10409F490C087
:100FB0008DA9811115C081E0C81AD108E108F10896
:100FC0008FEFC816D806E806F80609F481C0BEBC43
:100FD0000DB407FEFDCFAEBC0DB407FEFDCFEBCFC9
:100FE000813009F045C081E0C81AD108E108F10854
:100FF0008FEFC816D806E806F80609F469C09B2DDD
:1010000088E0E9A1FAA1208197FF2CC03DA1232B04
:101010002083EBA1FCA120813FA1232B2083EBA106
:10102000FCA1208138A523232083990F815049F703
:101030009A2D88E0E9A1FAA1208197FF16C03DA171
:10104000232B2083EBA1FCA120813FA1232B208314
:10105000EBA1FCA1208138A523232083990F815087
:1010600049F7C1CF3EA12323D3CF3EA12323E9CF0C
:10107000BA1016C0CC0CDD1CEE1CFF1CEF8DF8A1C5
:10108000B08281E0C81AD108E108F1088FEFC816D4
:10109000D806E806F806E1F0CE010E944406F1CF3A
:1010A00081E0C81AD108E108F1088FEFC816D80608
:1010B000E806F80669F0EF8DF8A1B082CE010E9433
:1010C0004406EF8DF8A1A082CE010E944406E8CF2D
:1010D000DF91CF911F910F91FF90EF90DF90CF9014
:1010E000BF90AF909F908F9008958F929F92AF92F4
:1010F000BF92CF92DF92EF92FF920F931F93CF9305
:10110000DF934C01EB016A01590137FF07C0C901A8
:101110000196C80FD91FB194A194B108F401A0851C
:10112000B185CA17DB070CF058C017FF07C0C8010C
:101130000196C80ED91E119501951109F4018285F9
:101140009385C816D9060CF048C0FE01EA0DFB1DB8
:10115000AF014150510957FD40C0B601600F711FEA
:101160009B012150310937FD38C0D7FF03C05F0113
:10117000D0E0C0E0D7FE03C08B01D12CC12C4A17B0
:101180005B071CF05D01AC1ABD0A281739071CF07B
:101190008C010C191D09D401ED91FC910284F38599
:1011A000E02DC40109959501A601BE01C4010E946C
:1011B000B707D401ED91FC910688F789E02DC401B1
:1011C000DF91CF911F910F91FF90EF90DF90CF9023
:1011D000BF90AF909F908F900994DF91CF911F9116
:1011E0000F91FF90EF90DF90CF90BF90AF909F90C6
:1011F0008F900895EF92FF920F931F932115310561
:1012000029F00115110511F00E9475081F910F9129
:10121000FF90EF9008958F929F92AF92BF92CF92DE
:10122000DF92EF92FF920F931F93CF93DF935C01B6
:101230004B016A01E90177FD52C0DC0118968D91DE
:101240009C91681779070CF04AC0209709F447C0B1
:1012500037FF07C0C9010196C80ED91ED195C195A7
:10126000D109F50182859385C816D906C4F5A60172
:101270004C0F5D1F9A012150310937FD30C0D7FE58
:1012800003C0EA01D12CC12C281739071CF0EC014E
:10129000CC19DD09D501ED91FC910284F385E02D97
:1012A000C501099578018E0121E030E0A601B40165
:1012B000C5010E94B707D501ED91FC910688F78919
:1012C000E02DC501DF91CF911F910F91FF90EF901D
:1012D000DF90CF90BF90AF909F908F900994DF9157
:1012E000CF911F910F91FF90EF90DF90CF90BF9023
:1012F000AF909F908F9008958F929F92AF92BF92E0
:10130000CF92DF92EF92FF920F931F93CF93DF93D1
:101310005C016B014A01E90157FD52C0DC011A96DC
:101320008D919C91481759070CF04AC0209709F4F9
:1013300047C037FF07C0C9010196C80ED91ED19515
:10134000C195D109F50180859185C816D906C4F5E6
:10135000A6014C0F5D1F9A012150310937FD30C0A5
:10136000D7FE03C0EA01D12CC12C281739071CF085
:10137000EC01CC19DD09D501ED91FC910284F385D6
:10138000E02DC5010995780101E010E09E01A4015E
:10139000B601C5010E94B707D501ED91FC91068801
:1013A000F789E02DC501DF91CF911F910F91FF903B
:1013B000EF90DF90CF90BF90AF909F908F90099467
:1013C000DF91CF911F910F91FF90EF90DF90CF9021
:1013D000BF90AF909F908F900895EF92FF920F93E0
:1013E0001F93CF93DF9377FD32C0DC011896ED9108
:1013F000FC916E177F075CF52115310541F137FF30
:1014000007C0F90131964E0F5F1F319521953109C3
:10141000DC011A96ED91FC914E175F07C4F4EA01C6
:10142000C20FD31FDE011197B7FD11C057FF03C0D4
:101430009E0150E040E0AE17BF071CF09F01241B47
:10144000350B7801890121E030E00E94B707DF9178
:10145000CF911F910F91FF90EF900895EF92FF921F
:101460000F931F93CF93DF9357FD31C0DC011A9682
:10147000ED91FC914E175F0754F52115310539F1B7
:1014800037FF07C0F90131966E0F7F1F3195219507
:101490003109DC011896ED91FC916E177F07BCF4C1
:1014A000EB01C20FD31FDE011197B7FD10C077FF0C
:1014B00003C09E0170E060E0AE17BF071CF09F0103
:1014C000261B370B780101E010E00E94B707DF917F
:1014D000CF911F910F91FF90EF9008958F929F925F
:1014E000AF92BF92CF92DF92EF92FF920F931F9332
:1014F000CF93DF9347012115310509F44BC0011546
:10150000110509F447C037FF07C0F90131966E0F86
:101510007F1F319521953109DC011896AD90BC9063
:101520006A157B05BCF517FF07C0F80131964E0F11
:101530005F1F119501951109DC011A96ED91FC913F
:101540004E175F073CF56B01C20ED31EE6012197D3
:10155000D7FD20C07A01E00EF11ED7011197B7FD2B
:1015600019C077FF03C0960170E060E057FF03C029
:10157000870150E040E0CA15DB051CF09501261BF1
:10158000370BAE17BF071CF08F01041B150B74013E
:101590000E94B707DF91CF911F910F91FF90EF90BD
:1015A000DF90CF90BF90AF909F908F900895EF9273
:1015B000FF920F931F93CF93DF93EC0177FD22C02F
:1015C0008885998568177907ECF457FD1BC08A85D3
:1015D0009B8548175907B4F47901E881F98102A481
:1015E000F3A5E02D01E010E021E030E0CE01099507
:1015F000B701CE01DF91CF911F910F91FF90EF9036
:101600000C945206DF91CF911F910F91FF90EF90B4
:101610000895CF93DF93EC010E9441078FA987FDC6
:1016200006C0EB8DFC8D80819AA989238083DF9190
:10163000CF9108950895AF92BF92CF92DF92EF922B
:10164000FF920F931F93CF93DF93EC01E62E8A0155
:10165000A22E0E9441078FA987FD06C0EB8DFC8D4D
:1016600080819AA989238083ED8DFE8D80819CA93C
:10167000892380836E2DCE010E949706ED8DFE8D0D
:1016800080819BA9892B8083D12CC12CB12CCA14B9
:10169000DB04E4F48DA97801823079F488A98823E9
:1016A00061F0F801619171917F01CE010E945206B3
:1016B000FFEFCF1ADF0A8701EACFFFEFEF1AFF0A29
:1016C000F8016491CE010E949706F2CF8FA987FDA1
:1016D00006C0EB8DFC8D808199A9892B8083DF91D9
:1016E000CF911F910F91FF90EF90DF90CF90BF901F
:1016F000AF900895611106C060E220E050E040E044
:101700000C941B0B61E2F9CF0F931F93CF93DF93E0
:101710001F92CDB7DEB78C016370DC0156966C93D7
:101720005697623009F468C0633009F46AC06130CA
:1017300009F456C088E4898380EF90E019969C9361
:101740008E93189780E491E01B969C938E931A9742
:10175000C8010E944107D801D7968C91D79787FD81
:1017600009C05B96ED91FC915C978081D2969C912B
:1017700089238083D8015D96ED91FC915E978081ED
:10178000D4969C918923808366E3C8010E949706C2
:10179000D8015D96ED91FC915E978081D3969C91E6
:1017A000D397892B8083D5968C91823061F16981A2
:1017B000C8010E949706D801D7968C91D79787FDCC
:1017C00009C05B96ED91FC915C978081D1969C91CC
:1017D000892B80830F90DF91CF911F910F910895F6
:1017E00088E2898380E491E0F8019187808780EF27
:1017F00090E093878287ACCF88E8898380EF90E080
:101800009DCF88EEEECFF80180A9882381F269810F
:101810007A81C8010E945206CECFFC0187A987FDBC
:1018200006C0A38DB48D9C9181A9892B8C930895BA
:101830000895FC016370668B8481958126813781D0
:10184000613039F0633029F09187808733872287B0
:101850000895318720879387828708952F923F923A
:101860004F925F926F927F928F929F92AF92BF92B0
:10187000CF92DF92EF92FF920F931F93CF93DF935C
:10188000CDB7DEB76A970FB6F894DEBF0FBECDBFF7
:101890009A8F898F7A8369834A01D22E18870F83A2
:1018A0003701BC2CDC0159962D913C915A9721159A
:1018B000310509F015C118968D919C9119976817FB
:1018C00079070CF0D7C11A968D919C91481759074A
:1018D0000CF0D0C14C2C512CB6E0CB9E600D711D8C
:1018E00011247C876B87161617060CF0C3C1EA2DEE
:1018F000F0E0FA87E98793E0EE0FFF1F9A95E1F792
:10190000F88BEF87CF01840F951F181619060CF07E
:10191000B1C1A98DBA8D58968C91811104C0BFEACE
:10192000BD1508F4D394A98DBA8DED91FC91119752
:101930000284F385E02DCD010995B5E0DB9EC00161
:101940001124E981FA81FC83EB83312C212C9C0149
:101950002E593E4F388F2F8B4A2D50E05E8B4D8B8A
:10196000EF89F88DE20DF31D44919E828D82D12C7A
:10197000C12C69817A81620D731D7A8B698B842FEA
:1019800090E09C8B8B8BE98DFA8DA081B18140FF1B
:1019900082C0F1E0BF126FC0AF126DC01C96ED9116
:1019A000FC912F813885A4014C0D5D1D69897A89D0
:1019B000898D9A8D0995EB89FC89F595E7954E2FD0
:1019C0005FEFC51AD50A6D817E818D899E89680F6A
:1019D000791F7E836D8398E0C916D10481F6AFEF3D
:1019E0002A1A3A0AEB81FC81E40DF51DFC83EB8396
:1019F000F5E02F16310409F0B3CF2F813885261575
:101A00003705B9F0A98DBA8DED91FC91B1E0BB120B
:101A100057C0AB1255C069817A816B5F7F4F0088D8
:101A2000F189E02D830128E030E0A401898D9A8DB1
:101A30000995A98DBA8DED91FC9111970688F789CA
:101A4000E02DCD016A960FB6F894DEBF0FBECDBF74
:101A5000DF91CF911F910F91FF90EF90DF90CF908A
:101A6000BF90AF909F908F907F906F905F904F90BE
:101A70003F902F9009941E96ED91FC91EF80F88491
:101A800009851A8592014D815E816B817C81898DEA
:101A90009A8D099590CF2F8138852615370509F441
:101AA0008ACF31E0B31207C0A31205C01C96ED9196
:101AB000FC91930178CF1E96ED91FC917301E0CFDC
:101AC0006B857C85641975090684F785E02D7301A3
:101AD0000F8518899201A401898D9A8D0995A9CF46
:101AE000F90134969491329745915491D91AB7E0FF
:101AF000DB9E400D511D1124F901259134913C8B41
:101B00002B8BFA0125903490FA013296749031961D
:101B10003491398B329664903196449041E04C1563
:101B200018F04A1508F07FC0662D062C000C770BC4
:101B30007C836B83842D042C000C990B9E838D83F6
:101B4000A98DBA8DED91FC9111970284F385E02D5A
:101B5000CD010995512CD12CC12CEA2DF0E0FA874A
:101B6000E9872B2D30E03C872B87A401440D511DC4
:101B700047FC5A95588F4F8B69817A81660D711D8C
:101B800067FC7A957E876D877989C71608F051CFF3
:101B90002C2D30E04D815E81420F531FA985BA85FF
:101BA0004A9FC0014B9F900D5A9F900D1124FC013C
:101BB000E80DF91DF88BEF87852D612C4F89588D25
:101BC000420F531F5E8B4D8B671408F050C04424A6
:101BD0004394480E877041F4C1010196EB89FC895A
:101BE000E20DF31DD4901C01D7FE19C0A98DBA8D4A
:101BF000ED91FC91662D70E0B1E0BB1219C0AB1203
:101C000017C02D853E85620F731F0484F585E02D76
:101C10002F8138854D895E89898D9A8D0995DD0CD6
:101C20006394842DD1CF1E821D821C821B8288CF9B
:101C30004B815C81640F751FAB85BC856A9FC001B9
:101C40006B9F900D7A9F900D112469817A81680FA6
:101C5000791F0684F785E02DEF80F88409851A85C1
:101C60009D014F855889898D9A8D0995D8CF570C3C
:101C7000C3948ACF6A960FB6F894DEBF0FBECDBF6D
:101C8000DF91CF911F910F91FF90EF90DF90CF9058
:101C9000BF90AF909F908F907F906F905F904F908C
:101CA0003F902F9008958F929F92AF92CF92EF9294
:101CB000FF920F931F93CF93DF93EC01262F898D13
:101CC0009A8D009709F051C06A30D1F41D861C86A8
:101CD0008D8948E0849F900111248E859F85820F15
:101CE000931F9F878E8781E090E0DF91CF911F91B6
:101CF0000F91FF90EF90CF90AF909F908F900895AD
:101D00006D3089F3CC88AD888F898823C1F08C85AC
:101D10009D8536E0C39E800D911D1124488559850F
:101D20004817590764F44E855F851D861C8638E088
:101D3000A39EC0011124840F951F9F878E87EA8878
:101D4000FB88088919894E855F856C857D85CE0164
:101D50000E942E0C2C898C859D8546E0249F800D49
:101D6000911D11249D878C87BECF6A3069F41D8632
:101D70001C86FC013896E4912D898E859F85E29F13
:101D8000800D911D1124ADCF6D3009F4ACCFFC0155
:101D900034963491631708F4A6CF3296E491E6178F
:101DA00008F4A1CFFC01329685909490462F431BF6
:101DB000342F47E0349F800C911C1124F40132969B
:101DC00034913196E4913323A9F1EE2399F1CC8833
:101DD000F4013596E491AD884F89442301F10E2E2C
:101DE000000CFF0BE30FF11DCE9EA001CF9E500D06
:101DF00011246C857D85460F571F6885798564178A
:101E000075076CF44E855F851D861C86FC0138962F
:101E1000E491AE9E400D511D11245F874E87EA88E4
:101E2000FB88088919894E855F856C857D85CE0183
:101E30000E942E0CF4013496E4912C898C859D85AA
:101E4000E29F800D911D11248DCF6F927F928F9212
:101E50009F92AF92BF92CF92DF92EF92FF920F9339
:101E60001F93CF93DF93EC016B015A0139014801B5
:101E7000E881F9810284F385E02D0995E881F981F3
:101E80000288F389E02D87019301A501B601CE01F7
:101E90000995A501480D591D41505109E881F98165
:101EA0000288F389E02D9301B601CE010995E881FE
:101EB000F9810088F189E02D9401A501B601CE01D8
:101EC0000995C60CD71CB60161507109E881F981EA
:101ED0000088F189E02D9401A501CE010995E881E2
:101EE000F9810688F789E02DCE01DF91CF911F910E
:101EF0000F91FF90EF90DF90CF90BF90AF909F90A9
:101F00008F907F906F9009946F927F928F929F92A3
:101F1000AF92BF92CF92DF92EF92FF920F931F93F7
:101F2000CF93DF935C01EB016A014901380187011E
:101F3000DC01ED91FC916217730719F564167506C3
:101F40002CF0962D872D3A01C92ED82E96012619F0
:101F500037092F5F3F4F048CF58DE02DA301BE01A3
:101F6000C5010995DF91CF911F910F91FF90EF90DF
:101F7000DF90CF90BF90AF909F908F907F906F90A9
:101F800008954615570591F42617370724F0892D33
:101F90004B01C22FD82F9E01281939092F5F3F4FBF
:101FA000068CF78DE02DA601B401DACF0284F3850B
:101FB000E02D0995D501ED91FC910488F589E02D7E
:101FC00083019401A601BE01C5010995D501ED91DA
:101FD000FC910688F789E02DC501DF91CF911F9113
:101FE0000F91FF90EF90DF90CF90BF90AF909F90B8
:101FF0008F907F906F900994EF92FF920F931F93B1
:10200000DC011A960D911C911B9718962D913C910D
:102010001997ED91FC9100A0F1A1E02D7B0150E01A
:1020200040E070E060E009951F910F91FF90EF9004
:1020300008954F925F926F927F928F929F92AF928C
:10204000BF92CF92DF92EF92FF920F931F93CF93A5
:10205000DF936C012B015A0139014801DC01ED913C
:10206000FC910284F385E02D0995E201640C751C56
:10207000D601ED91FC91C615D7055CF40088F18975
:10208000E02D87019401A501BE01C60109952196A5
:10209000EFCF0688F789E02DC601DF91CF911F9120
:1020A0000F91FF90EF90DF90CF90BF90AF909F90F7
:1020B0008F907F906F905F904F9009948F929F9236
:1020C000AF92BF92CF92DF92EF92FF920F931F9346
:1020D000CF93DF93EC015B014A016901E881F9814B
:1020E0000284F385E02D099595012C0D3D1D2150AD
:1020F0003109E881F9810488F589E02D78018401AE
:10210000A401B501CE010995E881F9810688F78916
:10211000E02DCE01DF91CF911F910F91FF90EF90B5
:10212000DF90CF90BF90AF909F908F9009948F9247
:102130009F92AF92BF92CF92DF92EF92FF920F9356
:102140001F93CF93DF93EC015B014A016901780192
:10215000E881F9810284F385E02D0995C80CD91C2A
:10216000860101501109E881F9810488F589E02D83
:102170009501A401B501CE010995E881F981068890
:10218000F789E02DCE01DF91CF911F910F91FF9044
:10219000EF90DF90CF90BF90AF909F908F90099479
:1021A000EF92FF920F931F93DC01ED91FC9100A041
:1021B000F1A1E02D09951F910F91FF90EF900895E7
:1021C0000F931F93DC01ED91FC91068CF78DE02DB0
:1021D00009951F910F9108950F931F93DC01ED91C5
:1021E000FC91048CF58DE02D09951F910F910895B8
:1021F000DC01ED91FC910084F185E02D09942F9292
:102200003F924F925F926F927F928F929F92AF9286
:10221000BF92CF92DF92EF92FF920F931F93CF93D3
:10222000DF9300D000D000D0CDB7DEB73C016A010B
:102230003E832D83FC82EB825801A41AB50AB7FEB7
:1022400003C0B194A194B1088D809E80861A970A2C
:1022500097FE03C09194819491088A149B045CF0CA
:10226000902F812F0D811E819D838E839C2D8D2D1E
:102270006B01692F782F0C151D055CF09D818E81F7
:102280007E836D83692F782F902F812F8601C92E31
:10229000D82E1601201A310A2B012D813E81421AB7
:1022A000530A57FE03C0519441945108710137FEFF
:1022B00003C03FEFE31AF30AF594E7948D819E8102
:1022C000861797075CF5A1E0B0E0BA83A983C01632
:1022D000D1064CF1D301ED91FC910484F585E02DFC
:1022E0002B813C81A8016D817E818A149B041CF0A6
:1022F0004D815E81B801C3010995E418F508F7FE28
:102300000AC02D813E8189819A81280F391F3E8321
:102310002D83E20CF31C0F5F1F4FD9CF2FEF3FEF40
:102320003A832983D4CF26960FB6F894DEBF0FBE2A
:10233000CDBFDF91CF911F910F91FF90EF90DF9074
:10234000CF90BF90AF909F908F907F906F905F9055
:102350004F903F902F900895089590E080E0089569
:10236000089580910C02882349F080919401909106
:102370009501019690939501809394010895FB0136
:1023800001900020E9F73197AF01461B570BDC01A4
:10239000ED91FC910280F381E02D09948F929F9240
:1023A000AF92BF920F931F93CF93DF93CDB7DEB75A
:1023B000A1970FB6F894DEBF0FBECDBF19A2423071
:1023C00008F44AE08E010F5D1F4F842E912CB12C32
:1023D000A12CA50194010E94EE1EE62FB901CA01AD
:1023E000EA3004F5E05DD801EE938D01232B242B18
:1023F000252B79F790E080E0109729F0BD0183EB61
:1024000092E00E94BF11A1960FB6F894DEBF0FBEF6
:10241000CDBFDF91CF911F910F91BF90AF909F9053
:102420008F900895E95CDFCF4F925F926F927F9219
:102430008F929F92AF92BF92CF92DF92EF92FF92D4
:102440000F931F93CF936B017C01742EAC019B0102
:102450000E94322062E571E0811126C046015701D9
:10246000E894B7F82FEF3FEF4FE75FE7C501B401FE
:102470000E94322081110CC02FEF3FEF4FE75FE742
:10248000C501B4010E94741D66E571E0181664F080
:102490002FEF3FEF4FE75FE4C701B6010E942D2009
:1024A0001816ACF46AE571E083EB92E0CF911F91CE
:1024B0000F91FF90EF90DF90CF90BF90AF909F90E3
:1024C0008F907F906F905F904F900C94BF112FEF83
:1024D0003FEF4FE75FECC701B6010E94741D87FD17
:1024E000E1CF20E030E0A901C701B6010E94741DD0
:1024F00010E000E087FF0AC06DE283EB92E00E94EB
:10250000530E8C01F7FAF094F7F8F094C0E060E015
:1025100070E080E09FE37C1641F020E030E040E294
:1025200051E40E948C1FCF5FF6CFA70196010E9455
:10253000201F2B013C010E94FE1F4B015C014AE061
:102540000E94CE117C01E00EF11ECC23C1F1C50129
:10255000B4010E94791D9B01AC01C301B2010E942C
:102560001F1F4B015C016EE283EB92E00E94530E51
:10257000E80EF91EC15018F120E030E040E251E4CD
:10258000C501B4010E94DA1D2B013C010E94FE1F0F
:102590004B01B12CA12C4AE0C501B4010E94CE111F
:1025A000E80EF91EC501B4010E94791D9B01AC0122
:1025B000C301B2010E941F1F4B015C01DBCFC701A9
:1025C000CF911F910F91FF90EF90DF90CF90BF9030
:1025D000AF909F908F907F906F905F904F900895F5
:1025E000CF93DF93FC01448155816081718186E145
:1025F00092E00E94E604EC016EE571E086E192E073
:102600000E94BF118C0F9D1FDF91CF910895CF9233
:10261000DF92EF92FF920F931F93CF93DF93EC0122
:102620006A017B01C114D104E104F10431F4C12C2D
:1026300042E1D42E4AE7E42EF12C8FA987FD07C092
:1026400061E00E94410461E08FA90E94130461E0EF
:1026500088AD0E94410461E088AD0E9413048DA9F9
:102660008111A3C040E052E16AE770E0C416D506CC
:10267000E606F70640F476956795579547958F5F80
:102680008630A1F787E0982F906A969599A3809558
:1026900081708AA31BA21CA21DA21EA21FB7F894C0
:1026A00080910702811127C0E1E2F7E08491E3E025
:1026B000F7E09491E82FF0E0EE0FFF1FEF52F94F93
:1026C000A591B491EC91E92321F461E08AE00E94A4
:1026D000130461E08AE00E9441048CB580618CBDE6
:1026E0008CB580648CBD61E08DE00E94410461E0A6
:1026F0008BE00E944104809107028F5F8093070264
:102700001FBF8EA987FD21C061E00E94410461E0E6
:102710008EA90E94130464E670E080E090E00E94BD
:10272000B40460E08EA90E94130464E670E080E0C7
:1027300090E00E94B40461E08EA90E94130468EC4A
:1027400070E080E090E00E94B4048EA987FF0DC085
:1027500020E050E040E061E0CE010E941B0B66E902
:1027600070E080E090E00E94B40402E616E0C80148
:102770000196F8016491662309F463C00E5F1F4F50
:10278000FC01F490EF2CE894E7F82E2DA801CE017F
:102790000E941B0B0E0D111DF7FEE9CF66E970E0DC
:1027A00080E090E00E94B404E2CF07E117E0F12C52
:1027B0008130B9F461E08AA50E94410460E08AA5F5
:1027C0000E94130461E08CA50E94410460E08CA586
:1027D0000E9413048BA587FD94CF60E00E94410402
:1027E00090CFF8018491E82FF0E0EE0FFF1FE35F38
:1027F000F84F859194912F8D38A12817390741F40E
:1028000061E08F2D0E94410460E08F2D0E9413042F
:10281000F3940F5F1F4FF4E1FF12E3CF61E08EA549
:102820000E94410461E08EA50E9413048FA587FDDC
:1028300068CF61E00E94410461E08FA50E9413040B
:1028400060CF80EF90E09987888780E491E09B8754
:102850008A87DF91CF911F910F91FF90EF90DF90CA
:10286000CF9008950E942E220F931F93CF93DF9352
:10287000EC0188819981009759F02A813B812617C4
:10288000370730F081E0DF91CF911F910F910895CC
:102890008B016F5F7F4F0E947121009759F09983E0
:1028A00088831B830A832C813D81232B59F7FC01EC
:1028B0001082E8CF80E0E7CFCF93DF93EC018881EF
:1028C0009981009711F00E94E820198218821D82D8
:1028D0001C821B821A82DF91CF910895EF92FF92A2
:1028E0000F931F93CF93DF938C017B01FB0101902A
:1028F0000020E9F73197E61BF70BD1F0DC011496C5
:10290000CD91DC91CE0FDF1FBE010E9434148823CD
:10291000B9F0F8012081318184819581B701820F5E
:10292000931F0E943C22D8011596DC93CE931497F6
:10293000C801DF91CF911F910F91FF90EF90089503
:10294000C8010E945C14F4CFEF92FF920F931F9383
:10295000CF93DF93EC017B018A01BA010E9434140A
:1029600081110BC0CE010E945C14CE01DF91CF918A
:102970001F910F91FF90EF9008951D830C83B70175
:10298000888199810E943C22F0CFEF92FF920F93B1
:102990001F93CF93DF93CDB7DEB7A1970FB6F8940F
:1029A000DEBF0FBECDBF7C01CB01BA01F7011182A2
:1029B000108213821282158214828E010F5F1F4FC4
:1029C00022E044E00E94EA1A0097C9F0FC0101905D
:1029D0000020E9F73197AF01481B590BBC01C70133
:1029E0000E94A414A1960FB6F894DEBF0FBECDBF0F
:1029F000DF91CF911F910F91FF90EF900895C70144
:102A00000E945C14EFCFFB01DC0111961C921E9218
:102A100013961C921E92129715961C921E92149752
:102A20008617970749F0608171816115710521F062
:102A3000448155810C94A4140895FC0180819181F6
:102A4000009711F00C94E82008951F93CF93DF9323
:102A500085ED8093BC008091990190919A01A0919D
:102A60009B01B0919C010796A11DB11D23E0B69575
:102A7000A795979587952A95D1F72091BC0024FDBD
:102A800003C01092E10152C04091990150919A0106
:102A900060919B0170919C01452B462B472B69F35C
:102AA0000097A105B10541F02AE22A95F1F700C08F
:102AB0000197A109B109E1CF80919801C1E0C093CC
:102AC0009701882399F1D091B8001091BA008091B4
:102AD000BC008A7B8093BC0060E082E10E9413040A
:102AE00060E083E10E9413041092E101C093E301CE
:102AF0001092E20161E082E10E94130461E083E14F
:102B00000E9413048091B9008E7F8093B900809158
:102B1000B9008D7F8093B90088E48093B80085E484
:102B20008093BC001093BA00D093B800DF91CF918E
:102B30001F9108951F920F920FB60F9211242F9399
:102B40003F938F939F93AF93BF9380910E02909189
:102B50000F02A0911002B091110230910D0223E0FA
:102B6000230F2D3758F50196A11DB11D20930D029D
:102B700080930E0290930F02A0931002B093110263
:102B80008091120290911302A0911402B09115024B
:102B90000196A11DB11D8093120290931302A09380
:102BA0001402B0931502BF91AF919F918F913F9105
:102BB0002F910F900FBE0F901F90189526E8230FAE
:102BC0000296A11DB11DD2CF1F920F920FB60F9288
:102BD00011242F933F934F935F936F937F938F9322
:102BE0009F93AF93BF93EF93FF9386E192E00E9490
:102BF0006405FF91EF91BF91AF919F918F917F916C
:102C00006F915F914F913F912F910F900FBE0F9059
:102C10001F9018951F920F920FB60F9211242F93A9
:102C20008F939F93EF93FF93E0912602F0912702F9
:102C30008081E0912C02F0912D0282FD1BC09081D9
:102C400080912F028F5F8F7320913002821741F0A5
:102C5000E0912F02F0E0EA5EFD4F958F80932F0206
:102C6000FF91EF919F918F912F910F900FBE0F9039
:102C70001F9018958081F4CF1F920F920FB60F927C
:102C800011242F933F934F935F936F937F938F9371
:102C90009F93AF93BF93EF93FF938091B900887F89
:102CA000803609F44AC0F0F5883209F4A5C018F559
:102CB000803109F499C0B8F4882309F4F5C088304C
:102CC00009F492C0FF91EF91BF91AF919F918F91C5
:102CD0007F916F915F914F913F912F910F900FBE18
:102CE0000F901F901895883109F486C0803251F7F3
:102CF0008093E00114C0803409F49BC040F4803319
:102D0000B9F38833F9F68093E00185ECAEC08035E5
:102D100009F483C0883509F494C0883499F60E9478
:102D20002515D0CF883909F48AC038F5883729F0BD
:102D300050F4883611F0803729F683E08093E10162
:102D40001092DF0155C0883809F479C0803919F034
:102D5000803809F0B7CF8091DF01803208F06FC072
:102D6000E091DF0181E08E0F8093DF018091BB0055
:102D7000F0E0E154FE4F80833BC0803B39F0D0F45B
:102D8000803A09F477C0883A09F09CCF84E08093B8
:102D9000E1011092BE011092BD01F0E0E0E0099562
:102DA0008091BD0181110FC081E08093BD0110921F
:102DB0009D0109C0803C09F4A8CF883C09F4A5CF47
:102DC000883B09F07FCFE091BE0181E08E0F8093B8
:102DD000BE01F0E0E356FE4F80818093BB009091EE
:102DE000BE018091BD0129C0809106028093BB0085
:102DF00085EC8093BC0066CF90910502809104021F
:102E0000981758F5E091050281E08E0F8093050236
:102E1000F0E0EC51FE4F8081E9CFE091050281E0C6
:102E20008E0F809305028091BB00F0E0EC51FE4FC5
:102E3000808390910502809104029817C8F285E87A
:102E4000D8CFE091050281E08E0F8093050280913A
:102E5000BB00F0E0EC51FE4F80838091E3018111D3
:102E60005ECF81E08093E20184EA8093BC001092FF
:102E7000E10128CF85EC8093BC001092E1018091A4
:102E8000DF01803230F4E091DF01F0E0E154FE4FE9
:102E900010826091DF0170E08FEB91E0F0E0E0E004
:102EA00009951092DF010ECF1092E00138CF1F92EA
:102EB0000F920FB60F9211242F933F934F935F936E
:102EC0006F937F938F939F93AF93BF93EF93FF93F2
:102ED000E0910801F09109010995FF91EF91BF91EF
:102EE000AF919F918F917F916F915F914F913F91A2
:102EF0002F910F900FBE0F901F901895E6E1F2E012
:102F00001382128288EE93E0A0E0B0E08483958380
:102F1000A683B78384E191E09183808385EC90E080
:102F20009587848784EC90E09787868780EC90E093
:102F3000918B808B81EC90E0938B828B82EC90E084
:102F4000958B848B86EC90E0978B868B118E128EFE
:102F5000138E148EA3EBB2E013961C921E9212975E
:102F600020EF30E015963C932E93149780E491E087
:102F700017969C938E93169719963C932E931897B9
:102F80001B969C938E931A9756961C9256971D9655
:102F90001C921E921C971F961C921E921E9781E0F7
:102FA00055968C93559754968C9354972FEF3FEFEB
:102FB00053963C932E93529751963C932E93509751
:102FC00057968C93579758961C9258975A961C92DE
:102FD0001E925997D5968C93D5978AE0D6968C9366
:102FE000D69788E0D7968C93D79789E0D8968C931C
:102FF000D897DA961C921E92D997DC961C921E9254
:10300000DB97DD961C92DD97DE961C92DE97109280
:10301000F2021092F3021092F4021092F5028DE087
:103020009C968C939C978BE09A968C939A978CE0C5
:103030009B968C939B97E0E2F7E0E491F0E0EE0F33
:10304000FF1FE35FF84F859194915E969C938E935A
:103050005D97E2E0F7E09491D3969C93D397E4E2F6
:10306000F7E0E491F0E0EE0FFF1FE35FF84F2591EA
:10307000349194963C932E939397E6E0F7E08491F5
:1030800097968C939797E2E2F7E0E491F0E0EE0FE9
:10309000FF1FE35FF84F2591349192963C932E9356
:1030A0009197E4E0F7E0249195962C939597EFE1C2
:1030B000F7E0E491F0E0EE0FFF1FE35FF84F45917A
:1030C00054915C965C934E935B97E1E0F7E034910A
:1030D000D1963C93D197E3E2F7E0E491F0E0EE0F74
:1030E000FF1FE151F94F4591549190965C934E9397
:1030F0005F97E5E0F7E0E4919996EC939997E32FD9
:10310000E095D296EC93D2979095D4969C93D497D1
:10311000809598968C939897209596962C93969751
:1031200086E291E08D939C930895CF93DF93CDB782
:10313000DEB76C970FB6F894DEBF0FBECDBF7894A4
:1031400084B5826084BD84B5816084BD85B58260AC
:1031500085BD85B5816085BD80916E00816080935D
:103160006E001092810080918100826080938100C6
:1031700080918100816080938100809180008160D6
:10318000809380008091B10084608093B100809131
:10319000B00081608093B00080917A008460809359
:1031A0007A0080917A00826080937A0080917A0020
:1031B000816080937A0080917A00806880937A00A1
:1031C0001092C100E0912602F091270212E01083D4
:1031D000E0912202F09123021082E0912402F0910A
:1031E00025028FEC808310922E02E0912A02F0914A
:1031F0002B0286E08083E0912802F09129028081F1
:1032000080618083E0912802F091290280818860AA
:103210008083E0912802F091290280818068808378
:10322000E0912802F091290280818F7D808361E006
:1032300082E00E94410460E08FE00E94410462E06D
:1032400085E00E94410462E084E00E94410480E144
:10325000809381001092800088EA91E69093870025
:103260008093860084E18093810081EB91E19093CB
:1032700009018093080181E080936F0040E050E0F5
:10328000BA0183EB92E00E94071361E083EB92E0C6
:103290000E94840B70E060E083EB92E00E94FC0FE0
:1032A00080E098EF9093C6028093C5029093C40289
:1032B0008093C3021093C7021093C802CE010196F7
:1032C0006C0185E00E94EA03892B19F491E0909348
:1032D0000C0284E00E94EA03892B41F410920B0255
:1032E00010920A021092090210920802A1E0A09323
:1032F0000C028FE00E94EA030197A9F48091080272
:10330000909109020A977CF480910A0290910B0235
:10331000019690930B0280930A02B6E0B89F1001C9
:10332000B99F300C112480E10E947D0424E630E036
:10333000DC010E943F202FEF33E040E050E00E948C
:10334000981ECA01B9010E947B1D2B013C018EE031
:103350000E947D04BC01990F880B990B0E947B1D74
:1033600020E030EC4FE754E40E948C1F2CE53FE84E
:1033700042EC5DE30E94201F22E63EEB4CEB58E35B
:103380000E948C1F20E932EB41E25CE30E94DA1DCF
:103390004B015C01F12CE12C00EF10E020E431E066
:1033A00050E040E070E060E083EB92E00E9475083E
:1033B0008AE090E09093C0028093BF02A4E1B0E065
:1033C000B093C202A093C10261E671E083EB92E088
:1033D0000E94BF11C101032C000CAA0BBB0B898FEB
:1033E0009A8FAB8FBC8F37FEEFC06DE283EB92E01C
:1033F0000E94530E698D7A8D8B8D9C8D9095809552
:10340000709561957F4F8F4F9F4F4AE00E94CE117C
:1034100069E671E083EB92E00E94BF11AAE0B0E0A0
:10342000B093C002A093BF028CE390E09093C202DD
:103430008093C1026EE671E083EB92E00E94BF11BF
:1034400042E0C301B2010E94141264E771E083EB11
:1034500092E00E94BF11AAE0B0E0B093C002A09336
:10346000BF0284E690E09093C2028093C10267E7B6
:1034700071E083EB92E00E94BF1142E0C501B4010C
:103480000E9414126DE771E083EB92E00E94BF117D
:103490009EE129163104ACF420E030E048E452E427
:1034A000C301B2010E942D2087FF0BC020E030E055
:1034B00048E452E4C501B4010E942D2060E087FD7C
:1034C00013C0AAE0B0E0B093C002A093BF028CE8A2
:1034D00090E09093C2028093C10262E871E083EBB6
:1034E00092E00E94BF1161E082E00E9413041C8AF6
:1034F0001B8A1E8A1D8A188E1F8A4AE0B601C101E6
:103500000E94081BF60101900020E9F73197AF01F6
:103510004C195D09B601CE0143960E94A414BE0168
:103520006D5E7F4FC6010E9403156FE871E0C60112
:103530000E946E140E94F012C6010E941D15CE0159
:1035400043960E941D15B301A201CE0143960E942D
:10355000C514BE016D5E7F4FC6010E94031564E76E
:1035600071E0C6010E946E140E94F012C6010E9412
:103570001D15CE0143960E941D15B501A401CE0173
:1035800043960E94C514BE016D5E7F4FC6010E9426
:1035900003156DE771E0C6010E946E140E94F012DF
:1035A000C6010E941D15CE0143960E941D15A0E084
:1035B000B0E0AB2B09F485CE0E945005882309F4B6
:1035C00080CE0E9400007DCE4AE0698D7A8D8B8D81
:1035D0009C8D1CCFEF920F931F93CF93DF93E80145
:1035E00034E047FD34E1042E000C550B57FF03C0B7
:1035F000519541955109E32E022F242FAE010E94CF
:103600002D1BCE01DF91CF911F910F91EF90089567
:10361000BB274A3031F4992322F4BDE2909581957D
:103620009F4F0C94141BBB27FB015527AA27880F1B
:10363000991FAA1FA41710F0A41B83955051B9F726
:10364000A05DAA3308F0A95DA193009779F7B111A5
:10365000B1931192CB010C94641DA9E0B0E0E3E3B7
:10366000FBE10C94BD1E6A01F22EB02E102FFBE37D
:10367000AF2EA01608F41BE31F5F012F27E0AE0159
:103680004F5F5F4F0E948C1CBC018981982F9970FD
:10369000913009F43FC09BE2E1FC04C09E2D917083
:1036A000E0FC3AC05E2D5071E82FE87083FF46C001
:1036B00084E0911101C083E0EF2DE81B8F1508F025
:1036C000E0E0D6018E2F20E2552351F1992329F015
:1036D000D6019C93C60101966C0196012D5F3F4F68
:1036E000E2FE24C08EE4D6018C9391E411969C9363
:1036F000119712968C93D9018E2F90E281111BC0E5
:10370000E20FF32FF11D10828EEF9FEF2996ECE070
:103710000C94D91E9DE2C6CF90E2C4CF2D93815068
:103720008111FCCFCE0ED11CE0E0D0CF8EE6D601C9
:103730008C9391E6DBCF9D938150E0CF482F44706E
:1037400082FF3DC084E0911101C083E08F1510F429
:10375000EF2DE81BD6018E2F20E2552309F1992386
:1037600029F0D6019C93C60101966C0196012D5F4C
:103770003F4FE2FE1BC089E4D6018C938EE4119684
:103780008C93119786E412968C93D9018E2F90E238
:10379000882309F4B5CF9D938150FACF2D938150A2
:1037A0008111FCCFCE0ED11CE0E0D9CF89E6D60145
:1037B0008C938EE611968C93119786E6E4CF9B014D
:1037C00077FF02C030E020E0A1E0B0E0911102C03C
:1037D000B0E0A0E0F9013196AE0FBF1F8B2C912C09
:1037E000BB2009F461C05401EFEFAE1ABE0AAA0D66
:1037F000BB1DFA161B0619F014F04F2D4A1B511170
:1038000088C0E3FC59C07601A42FB0E2A1114FC0DB
:10381000C40ED11C992309F45BC040E0D601119677
:10382000F60190836D01552309F448C0012F060F5E
:103830009A81582F507184FF03C0913309F40150CD
:1038400010160CF047C0093008F008E0EEE2FE2E3A
:103850005B01A01AB10885019194819491082F3FD2
:10386000320729F4D601FC92F60131966F016217F6
:10387000730794F1021713077CF5DB01A21BB30B4E
:10388000AA24A394B12CAC0EBD1EAA0DBB1D11968B
:103890008C9121503109D601119628153905F4F083
:1038A000F60180836D01DBCFB12CA12CA0CFF701F5
:1038B000B1937F01A150AACF9111B0CFD601942F1F
:1038C00050E302C05D9391509111FCCFC40ED11C06
:1038D00040E0ACCF01E0BACF80E3DBCF62177307E3
:1038E00031F4963388F4953311F4552369F0F601D9
:1038F0008083FD01842F90E2811108C0A40FB11DC7
:103900001C9290E080E002CF81E3F1CF919381504F
:10391000F3CF911183CF8ACF283008F027E03327E7
:10392000DA01990F311D87FD9160009661057105DF
:1039300039F432602E5F3D9330E32A95E1F7089524
:103940009F3F30F080387105610509F03C5F3C5FB6
:103950003D93913008F08068911DDF93CF931F93C2
:103960000F93FF92EF92192F987F9695E92F9695D6
:103970009695E90FFF27EE53FF4F99273327EE2443
:10398000FF24A701E70105900894079428F4360F57
:10399000E71EF81E491F511D660F771F881F991FCC
:1039A0000694A1F70590079428F4E70EF81E491F26
:1039B000561FC11D770F881F991F661F0694A1F718
:1039C0000590079428F4F80E491F561FC71FD11DF4
:1039D000880F991F661F771F0694A1F7059007941B
:1039E00020F4490F561FC71FD81F990F661F771F56
:1039F000881F0694A9F784911095177041F0D69509
:103A0000C79557954795F794E7941A95C1F7E8E657
:103A1000F0E0689415901591359165919591059018
:103A20007FE27395E118F10A430B560BC90BD009DD
:103A3000C0F7E10CF11E431F561FC91FD01D7EF4B5
:103A4000703311F48A95E6CFE894015030F0080FF6
:103A50000AF40027021708F4202F2395022F7A3347
:103A600028F079E37D932A95E9F710C07D932A9594
:103A700089F6069497956795379517951794E118E9
:103A8000F10A430B560BC90BD00998F023957E9190
:103A900073957A3308F070E37C932013B8F77E9126
:103AA00070617D9330F0839571E37D9370E32A9587
:103AB000E1F71124EF90FF900F911F91CF91DF91CB
:103AC000992787FD90950895DC01FC01672F71917E
:103AD0007723E1F7329704C07C916D9370836291F4
:103AE000AE17BF07C8F308950E94B61D08F481E021
:103AF0000895E89409C097FB3EF4909580957095E1
:103B000061957F4F8F4F9F4F9923A9F0F92F96E929
:103B1000BB279395F695879577956795B795F1119E
:103B2000F8CFFAF4BB0F11F460FF1BC06F5F7F4F3B
:103B30008F4F9F4F16C0882311F096E911C077234D
:103B400021F09EE8872F762F05C0662371F096E856
:103B5000862F70E060E02AF09A95660F771F881F25
:103B6000DAF7880F9695879597F90895990F0008C9
:103B7000550FAA0BE0E8FEEF16161706E807F9073F
:103B8000C0F012161306E407F50798F0621B730BDA
:103B9000840B950B39F40A2661F0232B242B252B5B
:103BA00021F408950A2609F4A140A6958FEF811DFE
:103BB000811D08950E94ED1D0C945E1E0E94501EF2
:103BC00038F00E94571E20F0952311F00C94471EE8
:103BD0000C944D1E11240C94921E0E946F1E70F3C3
:103BE000959FC1F3950F50E0551F629FF001729FA2
:103BF000BB27F00DB11D639FAA27F00DB11DAA1FB1
:103C0000649F6627B00DA11D661F829F2227B00DFD
:103C1000A11D621F739FB00DA11D621F839FA00D88
:103C2000611D221F749F3327A00D611D231F849FD8
:103C3000600D211D822F762F6A2F11249F5750402F
:103C40009AF0F1F088234AF0EE0FFF1FBB1F661FAA
:103C5000771F881F91505040A9F79E3F510580F073
:103C60000C94471E0C94921E5F3FE4F3983ED4F3ED
:103C7000869577956795B795F795E7959F5FC1F717
:103C8000FE2B880F911D9695879597F9089597F9C2
:103C90009F6780E870E060E008959FEF80EC0895F2
:103CA00000240A941616170618060906089500241B
:103CB0000A9412161306140605060895092E039495
:103CC000000C11F4882352F0BB0F40F4BF2B11F409
:103CD00060FF04C06F5F7F4F8F4F9F4F089557FD68
:103CE0009058440F551F59F05F3F71F04795880F6A
:103CF00097FB991F61F09F3F79F087950895121601
:103D000013061406551FF2CF4695F1DF08C01616AC
:103D100017061806991FF1CF86957105610508945D
:103D20000895E894BB2766277727CB0197F9089574
:103D3000052E97FB1EF400940E94AF1E57FD07D07E
:103D40000E94EE1E07FC03D04EF40C94AF1E50955B
:103D50004095309521953F4F4F4F5F4F0895909577
:103D60008095709561957F4F8F4F9F4F08952F924B
:103D70003F924F925F926F927F928F929F92AF92FB
:103D8000BF92CF92DF92EF92FF920F931F93CF9348
:103D9000DF93CDB7DEB7CA1BDB0B0FB6F894DEBFDF
:103DA0000FBECDBF09942A88398848885F846E8405
:103DB0007D848C849B84AA84B984C884DF80EE804F
:103DC000FD800C811B81AA81B981CE0FD11D0FB658
:103DD000F894DEBF0FBECDBFED010895A1E21A2E0B
:103DE000AA1BBB1BFD010DC0AA1FBB1FEE1FFF1F9F
:103DF000A217B307E407F50720F0A21BB30BE40BEF
:103E0000F50B661F771F881F991F1A9469F7609535
:103E10007095809590959B01AC01BD01CF010895EF
:103E2000A29FB001B39FC001A39F700D811D1124FB
:103E3000911DB29F700D811D1124911D0895505840
:103E4000BB27AA270E94371F0C945E1E0E94501E9B
:103E500038F00E94571E20F039F49F3F19F426F4E1
:103E60000C944D1E0EF4E095E7FB0C94471EE92FD1
:103E70000E946F1E58F3BA176207730784079507ED
:103E800020F079F4A6F50C94911E0EF4E0950B2E1B
:103E9000BA2FA02D0B01B90190010C01CA01A0019C
:103EA0001124FF27591B99F0593F50F4503E68F1F7
:103EB0001A16F040A22F232F342F4427585FF3CF38
:103EC000469537952795A795F0405395C9F77EF409
:103ED0001F16BA0B620B730B840BBAF09150A1F052
:103EE000FF0FBB1F661F771F881FC2F70EC0BA0FD8
:103EF000621F731F841F48F4879577956795B79560
:103F0000F7959E3F08F0B0CF9395880F08F099275A
:103F1000EE0F9795879508950E94A01F0C945E1E42
:103F20000E94571E58F00E94501E40F029F45F3F37
:103F300029F00C94471E51110C94921E0C944D1EA6
:103F40000E946F1E68F39923B1F3552391F3951BDB
:103F5000550BBB27AA2762177307840738F09F5FAA
:103F60005F4F220F331F441FAA1FA9F335D00E2E17
:103F70003AF0E0E832D091505040E695001CCAF784
:103F80002BD0FE2F29D0660F771F881FBB1F261747
:103F900037074807AB07B0E809F0BB0B802DBF011E
:103FA000FF2793585F4F3AF09E3F510578F00C94ED
:103FB000471E0C94921E5F3FE4F3983ED4F386951F
:103FC00077956795B795F7959F5FC9F7880F911D0E
:103FD0009695879597F90895E1E0660F771F881FFA
:103FE000BB1F621773078407BA0720F0621B730BAD
:103FF000840BBA0BEE1F88F7E09508950E94771E98
:1040000088F09F5798F0B92F9927B751B0F0E1F099
:10401000660F771F881F991F1AF0BA95C9F714C049
:10402000B13091F00E94911EB1E008950C94911E60
:10403000672F782F8827B85F39F0B93FCCF3869582
:1040400077956795B395D9F73EF4909580957095DF
:1040500061957F4F8F4F9F4F08950E94B61D08F4C2
:104060008FEF08950E94B61D880B990B08950E944A
:10407000101F332312F48A1B9B0B0C9441200E94C7
:10408000101FB7FF0895821B930B0895EE0FFF1FBB
:104090000590F491E02D09940F931F93CF93DF9334
:1040A0008230910510F482E090E0E091F802F09106
:1040B000F90230E020E0B0E0A0E0309799F421155B
:1040C000310509F44AC0281B390B24303105D8F5D5
:1040D0008A819B816115710589F1FB01938382833C
:1040E000FE0111C040815181028113814817590797
:1040F000E0F04817590799F4109761F012960C9365
:10410000129713961C933296CF01DF91CF911F9196
:104110000F9108950093F8021093F902F4CF21153E
:10412000310551F04217530738F0A901DB019A011C
:10413000BD01DF01F801C1CFEF01F9CF9093F90282
:104140008093F802CDCFFE01E20FF31F819391938C
:104150002250310939832883D7CF2091F60230913C
:10416000F702232B41F420910C0130910D01309383
:10417000F7022093F60220910A0130910B012115DC
:10418000310541F42DB73EB740910E0150910F011A
:10419000241B350BE091F602F091F702E217F307CA
:1041A000A0F42E1B3F0B2817390778F0AC014E5FA7
:1041B0005F4F2417350748F04E0F5F1F5093F702EB
:1041C0004093F602819391939FCFF0E0E0E09CCF83
:1041D000CF93DF930097E9F0FC01329713821282AC
:1041E000A091F802B091F902ED0130E020E01097C3
:1041F000A1F420813181820F931F2091F60230912A
:10420000F7022817390709F061C0F093F702E0932D
:10421000F602DF91CF910895EA01CE17DF07E8F5A6
:104220004A815B819E0141155105B1F7E901FB838C
:10423000EA8349915991C40FD51FEC17FD0761F42A
:10424000808191810296840F951FE901998388836B
:10425000828193819B838A83F0E0E0E012968D91C6
:104260009C9113970097B9F52D913C911197CD0131
:104270000296820F931F2091F6023091F7022817C1
:10428000390739F6309751F51092F9021092F80279
:10429000B093F702A093F602BCCFD383C2834081D0
:1042A0005181840F951FC817D90761F44E5F5F4F86
:1042B00088819981480F591F518340838A819B814E
:1042C000938382832115310509F0B0CFF093F90271
:1042D000E093F8029ECFFD01DC01C0CF1382128271
:1042E000D7CFB0E0A0E0E7E7F1E20C94B91E8C0173
:1042F000009751F4CB010E944C208C01C801CDB72E
:10430000DEB7E0E10C94D51EFC01E60FF71F9C011F
:1043100022503109E217F30708F49DC0D901CD916D
:10432000DC911197C617D70798F0C530D10530F347
:10433000CE0104978617970708F3C61BD70B229761
:10434000C193D1936D937C93CF010E94E820D6CF87
:104350005B01AC1ABD0A4C018C0E9D1EA091F802A7
:10436000B091F902512C412CF12CE12C109731F530
:104370008091F6029091F7028815990509F05CC0CA
:104380004616570608F058C080910A0190910B011B
:10439000009741F48DB79EB740910E0150910F01E7
:1043A000841B950BE817F90708F055C0F093F70246
:1043B000E093F602F90171836083A0CF8D919C9107
:1043C000119712966C90129713967C901397A815DC
:1043D000B90559F56C0142E0C40ED11CCA14DB04C6
:1043E00020F1AC014A195B09DA011296159780F0A9
:1043F0006282738251834083D9016D937C93E1146F
:10440000F10471F0D7011396FC93EE93129776CFD7
:1044100022968C0F9D1FF90191838083F301EFCFCA
:10442000F093F902E093F80269CF4816590608F4B0
:104430002C017D01D3019ACFCB010E944C207C013D
:10444000009749F0AE01B8010E943322C8010E94D2
:10445000E820870153CF10E000E050CF81E090E0EA
:10446000F8940C944322FB01DC0102C001900D92F0
:1044700041505040D8F70895FB01DC0101900D92A6
:0A4480000020E1F70895F894FFCF43
:10448A00FFFFFFFFFFFFFFFFB0110000FA028000ED
:10449A00000000008605E6041305D305440522053D
:1044AA00360500000000530EE604AD11AC11670793
:1044BA00090BD70A6E0AED092E0AFF100D0C840BA0
:1044CA007A0B0B097C09FA08FC0F840F250F0713D6
:1044DA00D9066E616E00696E66006F7666000D0A17
:1044EA000050756C73653A20002062706D004F4F62
:1044FA004D3A20002025004D50583A2000206B509C
:10450A00610042757A7A6572206E79616C61002069
:04451A0042504D00BE
:00000001FF
